{
  "transactions": [
    {
      "hash": null,
      "transactionType": "CREATE",
      "contractName": "WorkAgreement",
      "contractAddress": "0x62E64967bC9e9bC5836EE16886b341aaE27BfeB0",
      "function": null,
      "arguments": null,
      "transaction": {
        "type": "0x00",
        "from": "0xabcd8a8712a724f075e88ec4e5ac9d14a9f75e0e",
        "gas": "0xa30bd",
        "value": "0x0",
        "data": "0x6080604052600160035534801561001557600080fd5b506107f1806100256000396000f3fe608060405234801561001057600080fd5b50600436106100675760003560e01c8063bd14de9611610050578063bd14de96146100a7578063dd8f90ab14610115578063ff42856d1461012857600080fd5b80635686b54b1461006c578063777da97414610081575b600080fd5b61007f61007a3660046105ba565b610150565b005b61009461008f3660046105ef565b610428565b6040519081526020015b60405180910390f35b6101026100b53660046105ba565b600260208190526000918252604090912080546001820154928201546003830154600484015460058501546006909501546001600160a01b03948516969094169492939192909160ff1687565b60405161009e979695949392919061062f565b610094610123366004610693565b610459565b610094610136366004610716565b600060208181529281526040808220909352908152205481565b6000818152600260208181526040808420815160e08101835281546001600160a01b0390811682526001808401549091169482019490945293810154918401919091526003810154606084015260048101546080840152600581015460a08401526006810154909160c084019160ff16908111156101d0576101d0610619565b60018111156101e1576101e1610619565b90525060208101519091506001600160a01b031633148061020b575080516001600160a01b031633145b6102815760405162461bcd60e51b8152602060048201526024808201527f6f6e6c792069737375657220616e6420726563697069656e742063616e20636160448201527f6e63656c0000000000000000000000000000000000000000000000000000000060648201526084015b60405180910390fd5b6000828152600260209081526040808320600601805460ff1916600190811790915584516001600160a01b0316845290915281205490805b828110156103d45783516001600160a01b031660009081526001602052604090208054869190839081106102ef576102ef610749565b9060005260206000200154036103c25783516001600160a01b03166000908152600160208190526040909120906103269085610775565b8154811061033657610336610749565b600091825260208083209091015486516001600160a01b031683526001909152604090912080548390811061036d5761036d610749565b600091825260208083209091019290925585516001600160a01b031681526001909152604090208054806103a3576103a361078c565b60019003818190600052602060002001600090559055600191506103d4565b806103cc816107a2565b9150506102b9565b50806104225760405162461bcd60e51b815260206004820152601860248201527f61677265656d656e7420646f6573206e6f7420657869737400000000000000006044820152606401610278565b50505050565b6001602052816000526040600020818154811061044457600080fd5b90600052602060002001600091509150505481565b6000806040518060e00160405280336001600160a01b0316815260200184600001516001600160a01b0316815260200184602001518152602001846040015181526020018460600151815260200184608001518152602001600060018111156104c4576104c4610619565b90526003805491925060006104d8836107a2565b909155503360009081526020818152604080832085830180516001600160a01b03908116865291845282852086905585855260029384905293829020865181547fffffffffffffffffffffffff000000000000000000000000000000000000000090811691841691909117825594516001808301805490971691909316179094559085015191830191909155606084015160038301556080840151600483015560a0840151600583015560c084015160068301805494965085949192909160ff19169083818111156105ac576105ac610619565b021790555090505050919050565b6000602082840312156105cc57600080fd5b5035919050565b80356001600160a01b03811681146105ea57600080fd5b919050565b6000806040838503121561060257600080fd5b61060b836105d3565b946020939093013593505050565b634e487b7160e01b600052602160045260246000fd5b6001600160a01b0388811682528716602082015260408101869052606081018590526080810184905260a0810183905260e081016002831061068157634e487b7160e01b600052602160045260246000fd5b8260c083015298975050505050505050565b600060a082840312156106a557600080fd5b60405160a0810181811067ffffffffffffffff821117156106d657634e487b7160e01b600052604160045260246000fd5b6040526106e2836105d3565b8152602083013560208201526040830135604082015260608301356060820152608083013560808201528091505092915050565b6000806040838503121561072957600080fd5b610732836105d3565b9150610740602084016105d3565b90509250929050565b634e487b7160e01b600052603260045260246000fd5b634e487b7160e01b600052601160045260246000fd5b6000828210156107875761078761075f565b500390565b634e487b7160e01b600052603160045260246000fd5b6000600182016107b4576107b461075f565b506001019056fea2646970667358221220fd0b12d9d385a91b4f92026c8d135edd50f5372dfe6504913655081374ebbae864736f6c634300080f0033",
        "nonce": "0x0"
      },
      "additionalContracts": []
    },
    {
      "hash": null,
      "transactionType": "CALL",
      "contractName": "WorkAgreement",
      "contractAddress": "0x62E64967bC9e9bC5836EE16886b341aaE27BfeB0",
      "function": "issueAgreement((address,uint256,uint256,bytes32,bytes32)):(uint256)",
      "arguments": [
        "(0x7E5F4552091A69125d5DfCb7b8C2659029395Bdf, 1667683252, 0, 0x44455349474e45525f3100000000000000000000000000000000000000000000, 0x2f6eb1ba91bfd3bc0ff2df1d4add9186301a21a1e26252a53beb6d408a25b5ef)"
      ],
      "transaction": {
        "type": "0x00",
        "from": "0xa421db7e83b498cca5adc572fbc434d4ab3b8f31",
        "to": "0x62e64967bc9e9bc5836ee16886b341aae27bfeb0",
        "gas": "0x37f76",
        "value": "0x0",
        "data": "0xdd8f90ab0000000000000000000000007e5f4552091a69125d5dfcb7b8c2659029395bdf000000000000000000000000000000000000000000000000000000006366d3b4000000000000000000000000000000000000000000000000000000000000000044455349474e45525f31000000000000000000000000000000000000000000002f6eb1ba91bfd3bc0ff2df1d4add9186301a21a1e26252a53beb6d408a25b5ef",
        "nonce": "0x0"
      },
      "additionalContracts": []
    },
    {
      "hash": null,
      "transactionType": "CALL",
      "contractName": "WorkAgreement",
      "contractAddress": "0x62E64967bC9e9bC5836EE16886b341aaE27BfeB0",
      "function": "issueAgreement((address,uint256,uint256,bytes32,bytes32)):(uint256)",
      "arguments": [
        "(0x2B5AD5c4795c026514f8317c7a215E218DcCD6cF, 1667683252, 0, 0x44455349474e45525f3100000000000000000000000000000000000000000000, 0x9da4961113951814ef042d11b2bbe7893dba5a069884f3ed6a8bd8e823aba579)"
      ],
      "transaction": {
        "type": "0x00",
        "from": "0xa421db7e83b498cca5adc572fbc434d4ab3b8f31",
        "to": "0x62e64967bc9e9bc5836ee16886b341aae27bfeb0",
        "gas": "0x37f76",
        "value": "0x0",
        "data": "0xdd8f90ab0000000000000000000000002b5ad5c4795c026514f8317c7a215e218dccd6cf000000000000000000000000000000000000000000000000000000006366d3b4000000000000000000000000000000000000000000000000000000000000000044455349474e45525f31000000000000000000000000000000000000000000009da4961113951814ef042d11b2bbe7893dba5a069884f3ed6a8bd8e823aba579",
        "nonce": "0x1"
      },
      "additionalContracts": []
    },
    {
      "hash": null,
      "transactionType": "CALL",
      "contractName": "WorkAgreement",
      "contractAddress": "0x62E64967bC9e9bC5836EE16886b341aaE27BfeB0",
      "function": "issueAgreement((address,uint256,uint256,bytes32,bytes32)):(uint256)",
      "arguments": [
        "(0x6813Eb9362372EEF6200f3b1dbC3f819671cBA69, 1667683252, 0, 0x44455349474e45525f3100000000000000000000000000000000000000000000, 0xcc16ec376c27af957a949d1d94cc25fe94a1fd2e87f713791c569fcf55c25455)"
      ],
      "transaction": {
        "type": "0x00",
        "from": "0xa421db7e83b498cca5adc572fbc434d4ab3b8f31",
        "to": "0x62e64967bc9e9bc5836ee16886b341aae27bfeb0",
        "gas": "0x3b412",
        "value": "0x0",
        "data": "0xdd8f90ab0000000000000000000000006813eb9362372eef6200f3b1dbc3f819671cba69000000000000000000000000000000000000000000000000000000006366d3b4000000000000000000000000000000000000000000000000000000000000000044455349474e45525f3100000000000000000000000000000000000000000000cc16ec376c27af957a949d1d94cc25fe94a1fd2e87f713791c569fcf55c25455",
        "nonce": "0x2"
      },
      "additionalContracts": []
    },
    {
      "hash": null,
      "transactionType": "CALL",
      "contractName": "WorkAgreement",
      "contractAddress": "0x62E64967bC9e9bC5836EE16886b341aaE27BfeB0",
      "function": "issueAgreement((address,uint256,uint256,bytes32,bytes32)):(uint256)",
      "arguments": [
        "(0x1efF47bc3a10a45D4B230B5d10E37751FE6AA718, 1667683252, 0, 0x44455349474e45525f3100000000000000000000000000000000000000000000, 0xcfb4f6b79ac293ec2d99205eafbffb686f611b01fe5e00806cc06f24f47dbadb)"
      ],
      "transaction": {
        "type": "0x00",
        "from": "0xa421db7e83b498cca5adc572fbc434d4ab3b8f31",
        "to": "0x62e64967bc9e9bc5836ee16886b341aae27bfeb0",
        "gas": "0x3b412",
        "value": "0x0",
        "data": "0xdd8f90ab0000000000000000000000001eff47bc3a10a45d4b230b5d10e37751fe6aa718000000000000000000000000000000000000000000000000000000006366d3b4000000000000000000000000000000000000000000000000000000000000000044455349474e45525f3100000000000000000000000000000000000000000000cfb4f6b79ac293ec2d99205eafbffb686f611b01fe5e00806cc06f24f47dbadb",
        "nonce": "0x3"
      },
      "additionalContracts": []
    },
    {
      "hash": null,
      "transactionType": "CALL",
      "contractName": "WorkAgreement",
      "contractAddress": "0x62E64967bC9e9bC5836EE16886b341aaE27BfeB0",
      "function": "issueAgreement((address,uint256,uint256,bytes32,bytes32)):(uint256)",
      "arguments": [
        "(0xe1AB8145F7E55DC933d51a18c793F901A3A0b276, 1667683252, 0, 0x44455349474e45525f3100000000000000000000000000000000000000000000, 0x5680cbcb14f1bd0a0407d5a4de4a502be7a583673aab36fb381c13d9d20fcf09)"
      ],
      "transaction": {
        "type": "0x00",
        "from": "0xa421db7e83b498cca5adc572fbc434d4ab3b8f31",
        "to": "0x62e64967bc9e9bc5836ee16886b341aae27bfeb0",
        "gas": "0x37f76",
        "value": "0x0",
        "data": "0xdd8f90ab000000000000000000000000e1ab8145f7e55dc933d51a18c793f901a3a0b276000000000000000000000000000000000000000000000000000000006366d3b4000000000000000000000000000000000000000000000000000000000000000044455349474e45525f31000000000000000000000000000000000000000000005680cbcb14f1bd0a0407d5a4de4a502be7a583673aab36fb381c13d9d20fcf09",
        "nonce": "0x4"
      },
      "additionalContracts": []
    },
    {
      "hash": null,
      "transactionType": "CALL",
      "contractName": "WorkAgreement",
      "contractAddress": "0x62E64967bC9e9bC5836EE16886b341aaE27BfeB0",
      "function": "issueAgreement((address,uint256,uint256,bytes32,bytes32)):(uint256)",
      "arguments": [
        "(0xE57bFE9F44b819898F47BF37E5AF72a0783e1141, 1667683252, 0, 0x44455349474e45525f3200000000000000000000000000000000000000000000, 0x92dd957637ac571c488b39558ba0f5d741da2f2df36ae81f8b0f4e932c73273a)"
      ],
      "transaction": {
        "type": "0x00",
        "from": "0xa421db7e83b498cca5adc572fbc434d4ab3b8f31",
        "to": "0x62e64967bc9e9bc5836ee16886b341aae27bfeb0",
        "gas": "0x37f76",
        "value": "0x0",
        "data": "0xdd8f90ab000000000000000000000000e57bfe9f44b819898f47bf37e5af72a0783e1141000000000000000000000000000000000000000000000000000000006366d3b4000000000000000000000000000000000000000000000000000000000000000044455349474e45525f320000000000000000000000000000000000000000000092dd957637ac571c488b39558ba0f5d741da2f2df36ae81f8b0f4e932c73273a",
        "nonce": "0x5"
      },
      "additionalContracts": []
    },
    {
      "hash": null,
      "transactionType": "CALL",
      "contractName": "WorkAgreement",
      "contractAddress": "0x62E64967bC9e9bC5836EE16886b341aaE27BfeB0",
      "function": "issueAgreement((address,uint256,uint256,bytes32,bytes32)):(uint256)",
      "arguments": [
        "(0xd41c057fd1c78805AAC12B0A94a405c0461A6FBb, 1667683252, 0, 0x44455349474e45525f3200000000000000000000000000000000000000000000, 0xd6a20cd4419eb5647a0aafba99aa1a9bf226dbeab4e3c352cfa53a3d2e9c001a)"
      ],
      "transaction": {
        "type": "0x00",
        "from": "0xa421db7e83b498cca5adc572fbc434d4ab3b8f31",
        "to": "0x62e64967bc9e9bc5836ee16886b341aae27bfeb0",
        "gas": "0x3b412",
        "value": "0x0",
        "data": "0xdd8f90ab000000000000000000000000d41c057fd1c78805aac12b0a94a405c0461a6fbb000000000000000000000000000000000000000000000000000000006366d3b4000000000000000000000000000000000000000000000000000000000000000044455349474e45525f3200000000000000000000000000000000000000000000d6a20cd4419eb5647a0aafba99aa1a9bf226dbeab4e3c352cfa53a3d2e9c001a",
        "nonce": "0x6"
      },
      "additionalContracts": []
    },
    {
      "hash": null,
      "transactionType": "CALL",
      "contractName": "WorkAgreement",
      "contractAddress": "0x62E64967bC9e9bC5836EE16886b341aaE27BfeB0",
      "function": "issueAgreement((address,uint256,uint256,bytes32,bytes32)):(uint256)",
      "arguments": [
        "(0xF1F6619B38A98d6De0800F1DefC0a6399eB6d30C, 1667683252, 0, 0x44455349474e45525f3200000000000000000000000000000000000000000000, 0x638e6b6d7bdce6733ba46c6b381585305b3878da74513274de78bf0da50f90b1)"
      ],
      "transaction": {
        "type": "0x00",
        "from": "0xa421db7e83b498cca5adc572fbc434d4ab3b8f31",
        "to": "0x62e64967bc9e9bc5836ee16886b341aae27bfeb0",
        "gas": "0x37f76",
        "value": "0x0",
        "data": "0xdd8f90ab000000000000000000000000f1f6619b38a98d6de0800f1defc0a6399eb6d30c000000000000000000000000000000000000000000000000000000006366d3b4000000000000000000000000000000000000000000000000000000000000000044455349474e45525f3200000000000000000000000000000000000000000000638e6b6d7bdce6733ba46c6b381585305b3878da74513274de78bf0da50f90b1",
        "nonce": "0x7"
      },
      "additionalContracts": []
    },
    {
      "hash": null,
      "transactionType": "CALL",
      "contractName": "WorkAgreement",
      "contractAddress": "0x62E64967bC9e9bC5836EE16886b341aaE27BfeB0",
      "function": "issueAgreement((address,uint256,uint256,bytes32,bytes32)):(uint256)",
      "arguments": [
        "(0xF7Edc8FA1eCc32967F827C9043FcAe6ba73afA5c, 1667683252, 0, 0x44455349474e45525f3200000000000000000000000000000000000000000000, 0x96a424e2d45631abba9a40fa784ac913307be252084334edc2f565f9670bcfb7)"
      ],
      "transaction": {
        "type": "0x00",
        "from": "0xa421db7e83b498cca5adc572fbc434d4ab3b8f31",
        "to": "0x62e64967bc9e9bc5836ee16886b341aae27bfeb0",
        "gas": "0x37f76",
        "value": "0x0",
        "data": "0xdd8f90ab000000000000000000000000f7edc8fa1ecc32967f827c9043fcae6ba73afa5c000000000000000000000000000000000000000000000000000000006366d3b4000000000000000000000000000000000000000000000000000000000000000044455349474e45525f320000000000000000000000000000000000000000000096a424e2d45631abba9a40fa784ac913307be252084334edc2f565f9670bcfb7",
        "nonce": "0x8"
      },
      "additionalContracts": []
    },
    {
      "hash": null,
      "transactionType": "CALL",
      "contractName": "WorkAgreement",
      "contractAddress": "0x62E64967bC9e9bC5836EE16886b341aaE27BfeB0",
      "function": "issueAgreement((address,uint256,uint256,bytes32,bytes32)):(uint256)",
      "arguments": [
        "(0x4CCeBa2d7D2B4fdcE4304d3e09a1fea9fbEb1528, 1667683252, 0, 0x44455349474e45525f3200000000000000000000000000000000000000000000, 0x0e04b6f1ae97ab09404121e8d18327863ba0f377adc5f1d8435443b3840f2bf9)"
      ],
      "transaction": {
        "type": "0x00",
        "from": "0xa421db7e83b498cca5adc572fbc434d4ab3b8f31",
        "to": "0x62e64967bc9e9bc5836ee16886b341aae27bfeb0",
        "gas": "0x37f76",
        "value": "0x0",
        "data": "0xdd8f90ab0000000000000000000000004cceba2d7d2b4fdce4304d3e09a1fea9fbeb1528000000000000000000000000000000000000000000000000000000006366d3b4000000000000000000000000000000000000000000000000000000000000000044455349474e45525f32000000000000000000000000000000000000000000000e04b6f1ae97ab09404121e8d18327863ba0f377adc5f1d8435443b3840f2bf9",
        "nonce": "0x9"
      },
      "additionalContracts": []
    },
    {
      "hash": null,
      "transactionType": "CALL",
      "contractName": "WorkAgreement",
      "contractAddress": "0x62E64967bC9e9bC5836EE16886b341aaE27BfeB0",
      "function": "issueAgreement((address,uint256,uint256,bytes32,bytes32)):(uint256)",
      "arguments": [
        "(0x3DA8D322CB2435dA26E9C9fEE670f9fB7Fe74E49, 1667683252, 0, 0x454e47494e4545525f3100000000000000000000000000000000000000000000, 0x5a24b9c1c8d325b77771d9a5f2c4d37b29199fa2563f30dc3bd6a02106ce2078)"
      ],
      "transaction": {
        "type": "0x00",
        "from": "0xa421db7e83b498cca5adc572fbc434d4ab3b8f31",
        "to": "0x62e64967bc9e9bc5836ee16886b341aae27bfeb0",
        "gas": "0x37f76",
        "value": "0x0",
        "data": "0xdd8f90ab0000000000000000000000003da8d322cb2435da26e9c9fee670f9fb7fe74e49000000000000000000000000000000000000000000000000000000006366d3b40000000000000000000000000000000000000000000000000000000000000000454e47494e4545525f31000000000000000000000000000000000000000000005a24b9c1c8d325b77771d9a5f2c4d37b29199fa2563f30dc3bd6a02106ce2078",
        "nonce": "0xa"
      },
      "additionalContracts": []
    },
    {
      "hash": null,
      "transactionType": "CALL",
      "contractName": "WorkAgreement",
      "contractAddress": "0x62E64967bC9e9bC5836EE16886b341aaE27BfeB0",
      "function": "issueAgreement((address,uint256,uint256,bytes32,bytes32)):(uint256)",
      "arguments": [
        "(0xDbc23AE43a150ff8884B02Cea117b22D1c3b9796, 1667683252, 0, 0x454e47494e4545525f3100000000000000000000000000000000000000000000, 0x9ea31b4cb26c3464f3f4ee73fafb660ee5a7c266ace810c367b7d5ac0d791c74)"
      ],
      "transaction": {
        "type": "0x00",
        "from": "0xa421db7e83b498cca5adc572fbc434d4ab3b8f31",
        "to": "0x62e64967bc9e9bc5836ee16886b341aae27bfeb0",
        "gas": "0x37f76",
        "value": "0x0",
        "data": "0xdd8f90ab000000000000000000000000dbc23ae43a150ff8884b02cea117b22d1c3b9796000000000000000000000000000000000000000000000000000000006366d3b40000000000000000000000000000000000000000000000000000000000000000454e47494e4545525f31000000000000000000000000000000000000000000009ea31b4cb26c3464f3f4ee73fafb660ee5a7c266ace810c367b7d5ac0d791c74",
        "nonce": "0xb"
      },
      "additionalContracts": []
    },
    {
      "hash": null,
      "transactionType": "CALL",
      "contractName": "WorkAgreement",
      "contractAddress": "0x62E64967bC9e9bC5836EE16886b341aaE27BfeB0",
      "function": "issueAgreement((address,uint256,uint256,bytes32,bytes32)):(uint256)",
      "arguments": [
        "(0x68E527780872cda0216Ba0d8fBD58b67a5D5e351, 1667683252, 0, 0x454e47494e4545525f3100000000000000000000000000000000000000000000, 0x4fd943e25196fc196985f7b10e42e0d1dd6dd9526c4543b6c00ce7d42b1ee27b)"
      ],
      "transaction": {
        "type": "0x00",
        "from": "0xa421db7e83b498cca5adc572fbc434d4ab3b8f31",
        "to": "0x62e64967bc9e9bc5836ee16886b341aae27bfeb0",
        "gas": "0x37f76",
        "value": "0x0",
        "data": "0xdd8f90ab00000000000000000000000068e527780872cda0216ba0d8fbd58b67a5d5e351000000000000000000000000000000000000000000000000000000006366d3b40000000000000000000000000000000000000000000000000000000000000000454e47494e4545525f31000000000000000000000000000000000000000000004fd943e25196fc196985f7b10e42e0d1dd6dd9526c4543b6c00ce7d42b1ee27b",
        "nonce": "0xc"
      },
      "additionalContracts": []
    },
    {
      "hash": null,
      "transactionType": "CALL",
      "contractName": "WorkAgreement",
      "contractAddress": "0x62E64967bC9e9bC5836EE16886b341aaE27BfeB0",
      "function": "issueAgreement((address,uint256,uint256,bytes32,bytes32)):(uint256)",
      "arguments": [
        "(0x5A83529ff76Ac5723A87008c4D9B436AD4CA7d28, 1667683252, 0, 0x454e47494e4545525f3100000000000000000000000000000000000000000000, 0x2224ca7998608102ac1318990f38f3eab67c97b9098ec7030486718409e34d6a)"
      ],
      "transaction": {
        "type": "0x00",
        "from": "0xa421db7e83b498cca5adc572fbc434d4ab3b8f31",
        "to": "0x62e64967bc9e9bc5836ee16886b341aae27bfeb0",
        "gas": "0x3b412",
        "value": "0x0",
        "data": "0xdd8f90ab0000000000000000000000005a83529ff76ac5723a87008c4d9b436ad4ca7d28000000000000000000000000000000000000000000000000000000006366d3b40000000000000000000000000000000000000000000000000000000000000000454e47494e4545525f31000000000000000000000000000000000000000000002224ca7998608102ac1318990f38f3eab67c97b9098ec7030486718409e34d6a",
        "nonce": "0xd"
      },
      "additionalContracts": []
    },
    {
      "hash": null,
      "transactionType": "CALL",
      "contractName": "WorkAgreement",
      "contractAddress": "0x62E64967bC9e9bC5836EE16886b341aaE27BfeB0",
      "function": "issueAgreement((address,uint256,uint256,bytes32,bytes32)):(uint256)",
      "arguments": [
        "(0x8735015837bD10e05d9cf5EA43A2486Bf4Be156F, 1667683252, 0, 0x454e47494e4545525f3100000000000000000000000000000000000000000000, 0xc1e20016fc10bbc41f451a1dec636c0b1656c136b9f272c1aa8e800983970d5b)"
      ],
      "transaction": {
        "type": "0x00",
        "from": "0xa421db7e83b498cca5adc572fbc434d4ab3b8f31",
        "to": "0x62e64967bc9e9bc5836ee16886b341aae27bfeb0",
        "gas": "0x3b412",
        "value": "0x0",
        "data": "0xdd8f90ab0000000000000000000000008735015837bd10e05d9cf5ea43a2486bf4be156f000000000000000000000000000000000000000000000000000000006366d3b40000000000000000000000000000000000000000000000000000000000000000454e47494e4545525f3100000000000000000000000000000000000000000000c1e20016fc10bbc41f451a1dec636c0b1656c136b9f272c1aa8e800983970d5b",
        "nonce": "0xe"
      },
      "additionalContracts": []
    },
    {
      "hash": null,
      "transactionType": "CALL",
      "contractName": "WorkAgreement",
      "contractAddress": "0x62E64967bC9e9bC5836EE16886b341aaE27BfeB0",
      "function": "issueAgreement((address,uint256,uint256,bytes32,bytes32)):(uint256)",
      "arguments": [
        "(0xfaE394561e33e242c551d15D4625309EA4c0B97f, 1667683252, 0, 0x454e47494e4545525f3200000000000000000000000000000000000000000000, 0xb01bfa76ab15161b9a693ebdf604faad3241afe08cd8eca0fe7a8b14da4512a1)"
      ],
      "transaction": {
        "type": "0x00",
        "from": "0xa421db7e83b498cca5adc572fbc434d4ab3b8f31",
        "to": "0x62e64967bc9e9bc5836ee16886b341aae27bfeb0",
        "gas": "0x37f76",
        "value": "0x0",
        "data": "0xdd8f90ab000000000000000000000000fae394561e33e242c551d15d4625309ea4c0b97f000000000000000000000000000000000000000000000000000000006366d3b40000000000000000000000000000000000000000000000000000000000000000454e47494e4545525f3200000000000000000000000000000000000000000000b01bfa76ab15161b9a693ebdf604faad3241afe08cd8eca0fe7a8b14da4512a1",
        "nonce": "0xf"
      },
      "additionalContracts": []
    },
    {
      "hash": null,
      "transactionType": "CALL",
      "contractName": "WorkAgreement",
      "contractAddress": "0x62E64967bC9e9bC5836EE16886b341aaE27BfeB0",
      "function": "issueAgreement((address,uint256,uint256,bytes32,bytes32)):(uint256)",
      "arguments": [
        "(0x252Dae0A4b9d9b80F504F6418acd2d364C0c59cD, 1667683252, 0, 0x454e47494e4545525f3200000000000000000000000000000000000000000000, 0xf7f92de950218db932ff9255a180f812c17699e47504209bd1e0813b32871705)"
      ],
      "transaction": {
        "type": "0x00",
        "from": "0xa421db7e83b498cca5adc572fbc434d4ab3b8f31",
        "to": "0x62e64967bc9e9bc5836ee16886b341aae27bfeb0",
        "gas": "0x37f76",
        "value": "0x0",
        "data": "0xdd8f90ab000000000000000000000000252dae0a4b9d9b80f504f6418acd2d364c0c59cd000000000000000000000000000000000000000000000000000000006366d3b40000000000000000000000000000000000000000000000000000000000000000454e47494e4545525f3200000000000000000000000000000000000000000000f7f92de950218db932ff9255a180f812c17699e47504209bd1e0813b32871705",
        "nonce": "0x10"
      },
      "additionalContracts": []
    },
    {
      "hash": null,
      "transactionType": "CALL",
      "contractName": "WorkAgreement",
      "contractAddress": "0x62E64967bC9e9bC5836EE16886b341aaE27BfeB0",
      "function": "issueAgreement((address,uint256,uint256,bytes32,bytes32)):(uint256)",
      "arguments": [
        "(0x79196B90D1E952C5A43d4847CAA08d50b967c34A, 1667683252, 0, 0x454e47494e4545525f3200000000000000000000000000000000000000000000, 0x89527c8bb66c874ece2b20b9d02bd21994a06ab8d32d1420535a9678929b4dca)"
      ],
      "transaction": {
        "type": "0x00",
        "from": "0xa421db7e83b498cca5adc572fbc434d4ab3b8f31",
        "to": "0x62e64967bc9e9bc5836ee16886b341aae27bfeb0",
        "gas": "0x37f76",
        "value": "0x0",
        "data": "0xdd8f90ab00000000000000000000000079196b90d1e952c5a43d4847caa08d50b967c34a000000000000000000000000000000000000000000000000000000006366d3b40000000000000000000000000000000000000000000000000000000000000000454e47494e4545525f320000000000000000000000000000000000000000000089527c8bb66c874ece2b20b9d02bd21994a06ab8d32d1420535a9678929b4dca",
        "nonce": "0x11"
      },
      "additionalContracts": []
    },
    {
      "hash": null,
      "transactionType": "CALL",
      "contractName": "WorkAgreement",
      "contractAddress": "0x62E64967bC9e9bC5836EE16886b341aaE27BfeB0",
      "function": "issueAgreement((address,uint256,uint256,bytes32,bytes32)):(uint256)",
      "arguments": [
        "(0x4bd1280852Cadb002734647305AFC1db7ddD6Acb, 1667683252, 0, 0x454e47494e4545525f3200000000000000000000000000000000000000000000, 0x62c0b4eaf357ead8c7c37ef93a90635931455381a662de79103a37f85ff7dfe2)"
      ],
      "transaction": {
        "type": "0x00",
        "from": "0xa421db7e83b498cca5adc572fbc434d4ab3b8f31",
        "to": "0x62e64967bc9e9bc5836ee16886b341aae27bfeb0",
        "gas": "0x3b412",
        "value": "0x0",
        "data": "0xdd8f90ab0000000000000000000000004bd1280852cadb002734647305afc1db7ddd6acb000000000000000000000000000000000000000000000000000000006366d3b40000000000000000000000000000000000000000000000000000000000000000454e47494e4545525f320000000000000000000000000000000000000000000062c0b4eaf357ead8c7c37ef93a90635931455381a662de79103a37f85ff7dfe2",
        "nonce": "0x12"
      },
      "additionalContracts": []
    },
    {
      "hash": null,
      "transactionType": "CALL",
      "contractName": "WorkAgreement",
      "contractAddress": "0x62E64967bC9e9bC5836EE16886b341aaE27BfeB0",
      "function": "issueAgreement((address,uint256,uint256,bytes32,bytes32)):(uint256)",
      "arguments": [
        "(0x811da72aCA31e56F770Fc33DF0e45fD08720E157, 1667683252, 0, 0x454e47494e4545525f3200000000000000000000000000000000000000000000, 0x972d59b2bb917dba1c1f34af4a6f7f2286ed22aca587cb4fa21a744686a00224)"
      ],
      "transaction": {
        "type": "0x00",
        "from": "0xa421db7e83b498cca5adc572fbc434d4ab3b8f31",
        "to": "0x62e64967bc9e9bc5836ee16886b341aae27bfeb0",
        "gas": "0x37f76",
        "value": "0x0",
        "data": "0xdd8f90ab000000000000000000000000811da72aca31e56f770fc33df0e45fd08720e157000000000000000000000000000000000000000000000000000000006366d3b40000000000000000000000000000000000000000000000000000000000000000454e47494e4545525f3200000000000000000000000000000000000000000000972d59b2bb917dba1c1f34af4a6f7f2286ed22aca587cb4fa21a744686a00224",
        "nonce": "0x13"
      },
      "additionalContracts": []
    },
    {
      "hash": null,
      "transactionType": "CALL",
      "contractName": "WorkAgreement",
      "contractAddress": "0x62E64967bC9e9bC5836EE16886b341aaE27BfeB0",
      "function": "issueAgreement((address,uint256,uint256,bytes32,bytes32)):(uint256)",
      "arguments": [
        "(0x157bFBEcd023fD6384daD2Bded5DAD7e27Bf92E4, 1667683252, 0, 0x4d41524b4554494e475f31000000000000000000000000000000000000000000, 0x5f62b02dc6d6324ed03fb2938b8171f78023f7bb3e231ebce3ea43992aee4eb7)"
      ],
      "transaction": {
        "type": "0x00",
        "from": "0xa421db7e83b498cca5adc572fbc434d4ab3b8f31",
        "to": "0x62e64967bc9e9bc5836ee16886b341aae27bfeb0",
        "gas": "0x3b435",
        "value": "0x0",
        "data": "0xdd8f90ab000000000000000000000000157bfbecd023fd6384dad2bded5dad7e27bf92e4000000000000000000000000000000000000000000000000000000006366d3b400000000000000000000000000000000000000000000000000000000000000004d41524b4554494e475f310000000000000000000000000000000000000000005f62b02dc6d6324ed03fb2938b8171f78023f7bb3e231ebce3ea43992aee4eb7",
        "nonce": "0x14"
      },
      "additionalContracts": []
    },
    {
      "hash": null,
      "transactionType": "CALL",
      "contractName": "WorkAgreement",
      "contractAddress": "0x62E64967bC9e9bC5836EE16886b341aaE27BfeB0",
      "function": "issueAgreement((address,uint256,uint256,bytes32,bytes32)):(uint256)",
      "arguments": [
        "(0x37dA28C050E3c0A1c0aC3BE97913EC038783dA4C, 1667683252, 0, 0x4d41524b4554494e475f31000000000000000000000000000000000000000000, 0xa3713c5e132b779d327e6908b82e1cd8a7e6de7c69413b4242103cca16ac8280)"
      ],
      "transaction": {
        "type": "0x00",
        "from": "0xa421db7e83b498cca5adc572fbc434d4ab3b8f31",
        "to": "0x62e64967bc9e9bc5836ee16886b341aae27bfeb0",
        "gas": "0x3b435",
        "value": "0x0",
        "data": "0xdd8f90ab00000000000000000000000037da28c050e3c0a1c0ac3be97913ec038783da4c000000000000000000000000000000000000000000000000000000006366d3b400000000000000000000000000000000000000000000000000000000000000004d41524b4554494e475f31000000000000000000000000000000000000000000a3713c5e132b779d327e6908b82e1cd8a7e6de7c69413b4242103cca16ac8280",
        "nonce": "0x15"
      },
      "additionalContracts": []
    },
    {
      "hash": null,
      "transactionType": "CALL",
      "contractName": "WorkAgreement",
      "contractAddress": "0x62E64967bC9e9bC5836EE16886b341aaE27BfeB0",
      "function": "issueAgreement((address,uint256,uint256,bytes32,bytes32)):(uint256)",
      "arguments": [
        "(0x3Bc8287F1D872df4217283b7920D363F13Cf39D8, 1667683252, 0, 0x4d41524b4554494e475f31000000000000000000000000000000000000000000, 0xfe348b7198be5862d92b238486d0e8fdb7d129e24d7febfe07f71496373502a2)"
      ],
      "transaction": {
        "type": "0x00",
        "from": "0xa421db7e83b498cca5adc572fbc434d4ab3b8f31",
        "to": "0x62e64967bc9e9bc5836ee16886b341aae27bfeb0",
        "gas": "0x3b435",
        "value": "0x0",
        "data": "0xdd8f90ab0000000000000000000000003bc8287f1d872df4217283b7920d363f13cf39d8000000000000000000000000000000000000000000000000000000006366d3b400000000000000000000000000000000000000000000000000000000000000004d41524b4554494e475f31000000000000000000000000000000000000000000fe348b7198be5862d92b238486d0e8fdb7d129e24d7febfe07f71496373502a2",
        "nonce": "0x16"
      },
      "additionalContracts": []
    },
    {
      "hash": null,
      "transactionType": "CALL",
      "contractName": "WorkAgreement",
      "contractAddress": "0x62E64967bC9e9bC5836EE16886b341aaE27BfeB0",
      "function": "issueAgreement((address,uint256,uint256,bytes32,bytes32)):(uint256)",
      "arguments": [
        "(0xf4e2B0fcbd0DC4b326d8A52B718A7bb43BdBd072, 1667683252, 0, 0x4d41524b4554494e475f31000000000000000000000000000000000000000000, 0xfc17da1f836410a7ce48ed4a3b543d17763fd517eccd7fb56d9a6fd5d966072c)"
      ],
      "transaction": {
        "type": "0x00",
        "from": "0xa421db7e83b498cca5adc572fbc434d4ab3b8f31",
        "to": "0x62e64967bc9e9bc5836ee16886b341aae27bfeb0",
        "gas": "0x3b435",
        "value": "0x0",
        "data": "0xdd8f90ab000000000000000000000000f4e2b0fcbd0dc4b326d8a52b718a7bb43bdbd072000000000000000000000000000000000000000000000000000000006366d3b400000000000000000000000000000000000000000000000000000000000000004d41524b4554494e475f31000000000000000000000000000000000000000000fc17da1f836410a7ce48ed4a3b543d17763fd517eccd7fb56d9a6fd5d966072c",
        "nonce": "0x17"
      },
      "additionalContracts": []
    },
    {
      "hash": null,
      "transactionType": "CALL",
      "contractName": "WorkAgreement",
      "contractAddress": "0x62E64967bC9e9bC5836EE16886b341aaE27BfeB0",
      "function": "issueAgreement((address,uint256,uint256,bytes32,bytes32)):(uint256)",
      "arguments": [
        "(0x9a5279029e9A2D6E787c5A09CB068AB3D45e209d, 1667683252, 0, 0x4d41524b4554494e475f31000000000000000000000000000000000000000000, 0x77fab9751eadd7df7bcb62c225f0f0dbc36a8b691498ad247d0dbccdf54851db)"
      ],
      "transaction": {
        "type": "0x00",
        "from": "0xa421db7e83b498cca5adc572fbc434d4ab3b8f31",
        "to": "0x62e64967bc9e9bc5836ee16886b341aae27bfeb0",
        "gas": "0x28f5c28f5c28f5a",
        "value": "0x0",
        "data": "0xdd8f90ab0000000000000000000000009a5279029e9a2d6e787c5a09cb068ab3d45e209d000000000000000000000000000000000000000000000000000000006366d3b400000000000000000000000000000000000000000000000000000000000000004d41524b4554494e475f3100000000000000000000000000000000000000000077fab9751eadd7df7bcb62c225f0f0dbc36a8b691498ad247d0dbccdf54851db",
        "nonce": "0x18"
      },
      "additionalContracts": []
    },
    {
      "hash": null,
      "transactionType": "CALL",
      "contractName": "WorkAgreement",
      "contractAddress": "0x62E64967bC9e9bC5836EE16886b341aaE27BfeB0",
      "function": "issueAgreement((address,uint256,uint256,bytes32,bytes32)):(uint256)",
      "arguments": [
        "(0xc39677F5F47d5fE65ab24e66750e8FCa127c15BE, 1667683252, 0, 0x4d41524b4554494e475f32000000000000000000000000000000000000000000, 0x7bdd2fa9841be35bfefe3c756fa508def747f19956cfee0edce00582c1f075ab)"
      ],
      "transaction": {
        "type": "0x00",
        "from": "0xa421db7e83b498cca5adc572fbc434d4ab3b8f31",
        "to": "0x62e64967bc9e9bc5836ee16886b341aae27bfeb0",
        "gas": "0x3b435",
        "value": "0x0",
        "data": "0xdd8f90ab000000000000000000000000c39677f5f47d5fe65ab24e66750e8fca127c15be000000000000000000000000000000000000000000000000000000006366d3b400000000000000000000000000000000000000000000000000000000000000004d41524b4554494e475f320000000000000000000000000000000000000000007bdd2fa9841be35bfefe3c756fa508def747f19956cfee0edce00582c1f075ab",
        "nonce": "0x19"
      },
      "additionalContracts": []
    },
    {
      "hash": null,
      "transactionType": "CALL",
      "contractName": "WorkAgreement",
      "contractAddress": "0x62E64967bC9e9bC5836EE16886b341aaE27BfeB0",
      "function": "issueAgreement((address,uint256,uint256,bytes32,bytes32)):(uint256)",
      "arguments": [
        "(0x1dc728786E09F862E39Be1f39dD218EE37feB68D, 1667683252, 0, 0x4d41524b4554494e475f32000000000000000000000000000000000000000000, 0x45caef5354308fbe045471998d1e6c2c711c18a28c5d3caed4eebc7f94c733fe)"
      ],
      "transaction": {
        "type": "0x00",
        "from": "0xa421db7e83b498cca5adc572fbc434d4ab3b8f31",
        "to": "0x62e64967bc9e9bc5836ee16886b341aae27bfeb0",
        "gas": "0x3b435",
        "value": "0x0",
        "data": "0xdd8f90ab0000000000000000000000001dc728786e09f862e39be1f39dd218ee37feb68d000000000000000000000000000000000000000000000000000000006366d3b400000000000000000000000000000000000000000000000000000000000000004d41524b4554494e475f3200000000000000000000000000000000000000000045caef5354308fbe045471998d1e6c2c711c18a28c5d3caed4eebc7f94c733fe",
        "nonce": "0x1a"
      },
      "additionalContracts": []
    },
    {
      "hash": null,
      "transactionType": "CALL",
      "contractName": "WorkAgreement",
      "contractAddress": "0x62E64967bC9e9bC5836EE16886b341aaE27BfeB0",
      "function": "issueAgreement((address,uint256,uint256,bytes32,bytes32)):(uint256)",
      "arguments": [
        "(0x636CC65783084b9F370789c90F733DBBeb88925D, 1667683252, 0, 0x4d41524b4554494e475f32000000000000000000000000000000000000000000, 0x79dcd07e41694bad3e2ab99789adb357e21b2e3e6cccf352ece00ef631b21e65)"
      ],
      "transaction": {
        "type": "0x00",
        "from": "0xa421db7e83b498cca5adc572fbc434d4ab3b8f31",
        "to": "0x62e64967bc9e9bc5836ee16886b341aae27bfeb0",
        "gas": "0x3b435",
        "value": "0x0",
        "data": "0xdd8f90ab000000000000000000000000636cc65783084b9f370789c90f733dbbeb88925d000000000000000000000000000000000000000000000000000000006366d3b400000000000000000000000000000000000000000000000000000000000000004d41524b4554494e475f3200000000000000000000000000000000000000000079dcd07e41694bad3e2ab99789adb357e21b2e3e6cccf352ece00ef631b21e65",
        "nonce": "0x1b"
      },
      "additionalContracts": []
    },
    {
      "hash": null,
      "transactionType": "CALL",
      "contractName": "WorkAgreement",
      "contractAddress": "0x62E64967bC9e9bC5836EE16886b341aaE27BfeB0",
      "function": "issueAgreement((address,uint256,uint256,bytes32,bytes32)):(uint256)",
      "arguments": [
        "(0x4a7A7c2E09209dbE44A582cD92b0eDd7129E74be, 1667683252, 0, 0x4d41524b4554494e475f32000000000000000000000000000000000000000000, 0xaf5b41656bc293ff5496eb57c23c76118226abb1dc2f3e2eb74c9d92eac9743e)"
      ],
      "transaction": {
        "type": "0x00",
        "from": "0xa421db7e83b498cca5adc572fbc434d4ab3b8f31",
        "to": "0x62e64967bc9e9bc5836ee16886b341aae27bfeb0",
        "gas": "0x3b435",
        "value": "0x0",
        "data": "0xdd8f90ab0000000000000000000000004a7a7c2e09209dbe44a582cd92b0edd7129e74be000000000000000000000000000000000000000000000000000000006366d3b400000000000000000000000000000000000000000000000000000000000000004d41524b4554494e475f32000000000000000000000000000000000000000000af5b41656bc293ff5496eb57c23c76118226abb1dc2f3e2eb74c9d92eac9743e",
        "nonce": "0x1c"
      },
      "additionalContracts": []
    },
    {
      "hash": null,
      "transactionType": "CALL",
      "contractName": "WorkAgreement",
      "contractAddress": "0x62E64967bC9e9bC5836EE16886b341aaE27BfeB0",
      "function": "issueAgreement((address,uint256,uint256,bytes32,bytes32)):(uint256)",
      "arguments": [
        "(0xA56160A359F2EAa66f5c9df5245542B07339A9a6, 1667683252, 0, 0x4d41524b4554494e475f32000000000000000000000000000000000000000000, 0x9da4961113951814ef042d11b2bbe7893dba5a069884f3ed6a8bd8e823aba579)"
      ],
      "transaction": {
        "type": "0x00",
        "from": "0xa421db7e83b498cca5adc572fbc434d4ab3b8f31",
        "to": "0x62e64967bc9e9bc5836ee16886b341aae27bfeb0",
        "gas": "0x3b435",
        "value": "0x0",
        "data": "0xdd8f90ab000000000000000000000000a56160a359f2eaa66f5c9df5245542b07339a9a6000000000000000000000000000000000000000000000000000000006366d3b400000000000000000000000000000000000000000000000000000000000000004d41524b4554494e475f320000000000000000000000000000000000000000009da4961113951814ef042d11b2bbe7893dba5a069884f3ed6a8bd8e823aba579",
        "nonce": "0x1d"
      },
      "additionalContracts": []
    }
  ],
  "receipts": [],
  "libraries": [],
  "pending": [],
  "path": "/Users/joshuakim/Documents/ETH_SF/WorkAgreement/broadcast/Seed.s.sol/420/run-latest.json",
  "returns": {},
  "timestamp": 1667683397,
  "commit": "d3ff86d"
}